{
  "contractName": "DappToken",
  "abi": [
    {
      "inputs": [],
      "stateMutability": "nonpayable",
      "type": "constructor"
    },
    {
      "anonymous": false,
      "inputs": [
        {
          "indexed": true,
          "internalType": "address",
          "name": "owner",
          "type": "address"
        },
        {
          "indexed": true,
          "internalType": "address",
          "name": "spender",
          "type": "address"
        },
        {
          "indexed": false,
          "internalType": "uint256",
          "name": "value",
          "type": "uint256"
        }
      ],
      "name": "Approval",
      "type": "event"
    },
    {
      "anonymous": false,
      "inputs": [
        {
          "indexed": true,
          "internalType": "address",
          "name": "from",
          "type": "address"
        },
        {
          "indexed": true,
          "internalType": "address",
          "name": "to",
          "type": "address"
        },
        {
          "indexed": false,
          "internalType": "uint256",
          "name": "value",
          "type": "uint256"
        }
      ],
      "name": "Transfer",
      "type": "event"
    },
    {
      "inputs": [
        {
          "internalType": "address",
          "name": "owner",
          "type": "address"
        },
        {
          "internalType": "address",
          "name": "spender",
          "type": "address"
        }
      ],
      "name": "allowance",
      "outputs": [
        {
          "internalType": "uint256",
          "name": "",
          "type": "uint256"
        }
      ],
      "stateMutability": "view",
      "type": "function"
    },
    {
      "inputs": [
        {
          "internalType": "address",
          "name": "spender",
          "type": "address"
        },
        {
          "internalType": "uint256",
          "name": "amount",
          "type": "uint256"
        }
      ],
      "name": "approve",
      "outputs": [
        {
          "internalType": "bool",
          "name": "",
          "type": "bool"
        }
      ],
      "stateMutability": "nonpayable",
      "type": "function"
    },
    {
      "inputs": [
        {
          "internalType": "address",
          "name": "account",
          "type": "address"
        }
      ],
      "name": "balanceOf",
      "outputs": [
        {
          "internalType": "uint256",
          "name": "",
          "type": "uint256"
        }
      ],
      "stateMutability": "view",
      "type": "function"
    },
    {
      "inputs": [],
      "name": "decimals",
      "outputs": [
        {
          "internalType": "uint8",
          "name": "",
          "type": "uint8"
        }
      ],
      "stateMutability": "view",
      "type": "function"
    },
    {
      "inputs": [
        {
          "internalType": "address",
          "name": "spender",
          "type": "address"
        },
        {
          "internalType": "uint256",
          "name": "subtractedValue",
          "type": "uint256"
        }
      ],
      "name": "decreaseAllowance",
      "outputs": [
        {
          "internalType": "bool",
          "name": "",
          "type": "bool"
        }
      ],
      "stateMutability": "nonpayable",
      "type": "function"
    },
    {
      "inputs": [
        {
          "internalType": "address",
          "name": "spender",
          "type": "address"
        },
        {
          "internalType": "uint256",
          "name": "addedValue",
          "type": "uint256"
        }
      ],
      "name": "increaseAllowance",
      "outputs": [
        {
          "internalType": "bool",
          "name": "",
          "type": "bool"
        }
      ],
      "stateMutability": "nonpayable",
      "type": "function"
    },
    {
      "inputs": [],
      "name": "name",
      "outputs": [
        {
          "internalType": "string",
          "name": "",
          "type": "string"
        }
      ],
      "stateMutability": "view",
      "type": "function"
    },
    {
      "inputs": [
        {
          "internalType": "address",
          "name": "to",
          "type": "address"
        },
        {
          "internalType": "address",
          "name": "ownerIco",
          "type": "address"
        },
        {
          "internalType": "uint256",
          "name": "amount",
          "type": "uint256"
        }
      ],
      "name": "startIco",
      "outputs": [],
      "stateMutability": "nonpayable",
      "type": "function"
    },
    {
      "inputs": [],
      "name": "symbol",
      "outputs": [
        {
          "internalType": "string",
          "name": "",
          "type": "string"
        }
      ],
      "stateMutability": "view",
      "type": "function"
    },
    {
      "inputs": [],
      "name": "totalSupply",
      "outputs": [
        {
          "internalType": "uint256",
          "name": "",
          "type": "uint256"
        }
      ],
      "stateMutability": "view",
      "type": "function"
    },
    {
      "inputs": [
        {
          "internalType": "address",
          "name": "to",
          "type": "address"
        },
        {
          "internalType": "uint256",
          "name": "amount",
          "type": "uint256"
        }
      ],
      "name": "transfer",
      "outputs": [
        {
          "internalType": "bool",
          "name": "",
          "type": "bool"
        }
      ],
      "stateMutability": "nonpayable",
      "type": "function"
    },
    {
      "inputs": [
        {
          "internalType": "address",
          "name": "from",
          "type": "address"
        },
        {
          "internalType": "address",
          "name": "to",
          "type": "address"
        },
        {
          "internalType": "uint256",
          "name": "amount",
          "type": "uint256"
        }
      ],
      "name": "transferFrom",
      "outputs": [
        {
          "internalType": "bool",
          "name": "",
          "type": "bool"
        }
      ],
      "stateMutability": "nonpayable",
      "type": "function"
    },
    {
      "inputs": [
        {
          "internalType": "address",
          "name": "to",
          "type": "address"
        },
        {
          "internalType": "address",
          "name": "ownerofIco",
          "type": "address"
        },
        {
          "internalType": "uint256",
          "name": "amount",
          "type": "uint256"
        }
      ],
      "name": "initiateIco",
      "outputs": [],
      "stateMutability": "nonpayable",
      "type": "function"
    }
  ],
  "bytecode": "0x60806040523480156200001157600080fd5b506040518060400160405280600981526020017f4b6f7469546f6b656e00000000000000000000000000000000000000000000008152506040518060400160405280600481526020017f4b4f54490000000000000000000000000000000000000000000000000000000081525081600390816200008f919062000555565b508060049081620000a1919062000555565b5050506200010933620000b96200015060201b60201c565b60ff16789f4f2726179a224501d762422c946590d91000000000000000620000e2919062000690565b78ffffffffffffffffffffffffffffffffffffffffffffffffff166200015960201b60201c565b33600560006101000a81548173ffffffffffffffffffffffffffffffffffffffff021916908373ffffffffffffffffffffffffffffffffffffffff160217905550620007f8565b60006012905090565b600073ffffffffffffffffffffffffffffffffffffffff168273ffffffffffffffffffffffffffffffffffffffff1603620001cb576040517f08c379a0000000000000000000000000000000000000000000000000000000008152600401620001c2906200074b565b60405180910390fd5b620001df60008383620002d160201b60201c565b8060026000828254620001f391906200076d565b92505081905550806000808473ffffffffffffffffffffffffffffffffffffffff1673ffffffffffffffffffffffffffffffffffffffff16815260200190815260200160002060008282546200024a91906200076d565b925050819055508173ffffffffffffffffffffffffffffffffffffffff16600073ffffffffffffffffffffffffffffffffffffffff167fddf252ad1be2c89b69c2b068fc378daa952ba7f163c4a11628f55a4df523b3ef83604051620002b19190620007db565b60405180910390a3620002cd60008383620002d660201b60201c565b5050565b505050565b505050565b600081519050919050565b7f4e487b7100000000000000000000000000000000000000000000000000000000600052604160045260246000fd5b7f4e487b7100000000000000000000000000000000000000000000000000000000600052602260045260246000fd5b600060028204905060018216806200035d57607f821691505b60208210810362000373576200037262000315565b5b50919050565b60008190508160005260206000209050919050565b60006020601f8301049050919050565b600082821b905092915050565b600060088302620003dd7fffffffffffffffffffffffffffffffffffffffffffffffffffffffffffffffff826200039e565b620003e986836200039e565b95508019841693508086168417925050509392505050565b6000819050919050565b6000819050919050565b600062000436620004306200042a8462000401565b6200040b565b62000401565b9050919050565b6000819050919050565b620004528362000415565b6200046a62000461826200043d565b848454620003ab565b825550505050565b600090565b6200048162000472565b6200048e81848462000447565b505050565b5b81811015620004b657620004aa60008262000477565b60018101905062000494565b5050565b601f8211156200050557620004cf8162000379565b620004da846200038e565b81016020851015620004ea578190505b62000502620004f9856200038e565b83018262000493565b50505b505050565b600082821c905092915050565b60006200052a600019846008026200050a565b1980831691505092915050565b600062000545838362000517565b9150826002028217905092915050565b6200056082620002db565b67ffffffffffffffff8111156200057c576200057b620002e6565b5b62000588825462000344565b62000595828285620004ba565b600060209050601f831160018114620005cd5760008415620005b8578287015190505b620005c4858262000537565b86555062000634565b601f198416620005dd8662000379565b60005b828110156200060757848901518255600182019150602085019450602081019050620005e0565b8683101562000627578489015162000623601f89168262000517565b8355505b6001600288020188555050505b505050505050565b600078ffffffffffffffffffffffffffffffffffffffffffffffffff82169050919050565b7f4e487b7100000000000000000000000000000000000000000000000000000000600052601160045260246000fd5b60006200069d826200063c565b9150620006aa836200063c565b92508178ffffffffffffffffffffffffffffffffffffffffffffffffff0483118215151615620006df57620006de62000661565b5b828202905092915050565b600082825260208201905092915050565b7f45524332303a206d696e7420746f20746865207a65726f206164647265737300600082015250565b600062000733601f83620006ea565b91506200074082620006fb565b602082019050919050565b60006020820190508181036000830152620007668162000724565b9050919050565b60006200077a8262000401565b9150620007878362000401565b9250827fffffffffffffffffffffffffffffffffffffffffffffffffffffffffffffffff03821115620007bf57620007be62000661565b5b828201905092915050565b620007d58162000401565b82525050565b6000602082019050620007f26000830184620007ca565b92915050565b6115ad80620008086000396000f3fe608060405234801561001057600080fd5b50600436106100cf5760003560e01c8063395093511161008c57806395d89b411161006657806395d89b4114610226578063a457c2d714610244578063a9059cbb14610274578063dd62ed3e146102a4576100cf565b806339509351146101aa57806364584c0d146101da57806370a08231146101f6576100cf565b806306fdde03146100d4578063080e930c146100f2578063095ea7b31461010e57806318160ddd1461013e57806323b872dd1461015c578063313ce5671461018c575b600080fd5b6100dc6102d4565b6040516100e99190610d5c565b60405180910390f35b61010c60048036038101906101079190610e17565b610366565b005b61012860048036038101906101239190610e6a565b6103f7565b6040516101359190610ec5565b60405180910390f35b61014661041a565b6040516101539190610eef565b60405180910390f35b61017660048036038101906101719190610e17565b610424565b6040516101839190610ec5565b60405180910390f35b610194610453565b6040516101a19190610f26565b60405180910390f35b6101c460048036038101906101bf9190610e6a565b61045c565b6040516101d19190610ec5565b60405180910390f35b6101f460048036038101906101ef9190610e17565b610493565b005b610210600480360381019061020b9190610f41565b610533565b60405161021d9190610eef565b60405180910390f35b61022e61057b565b60405161023b9190610d5c565b60405180910390f35b61025e60048036038101906102599190610e6a565b61060d565b60405161026b9190610ec5565b60405180910390f35b61028e60048036038101906102899190610e6a565b610684565b60405161029b9190610ec5565b60405180910390f35b6102be60048036038101906102b99190610f6e565b6106a7565b6040516102cb9190610eef565b60405180910390f35b6060600380546102e390610fdd565b80601f016020809104026020016040519081016040528092919081815260200182805461030f90610fdd565b801561035c5780601f106103315761010080835404028352916020019161035c565b820191906000526020600020905b81548152906001019060200180831161033f57829003601f168201915b5050505050905090565b806000808473ffffffffffffffffffffffffffffffffffffffff1673ffffffffffffffffffffffffffffffffffffffff1681526020019081526020016000205410156103e7576040517f08c379a00000000000000000000000000000000000000000000000000000000081526004016103de9061105a565b60405180910390fd5b6103f283838361072e565b505050565b6000806104026107dd565b905061040f8185856107e5565b600191505092915050565b6000600254905090565b60008061042f6107dd565b905061043c8582856109ae565b610447858585610a3a565b60019150509392505050565b60006012905090565b6000806104676107dd565b905061048881858561047985896106a7565b61048391906110a9565b6107e5565b600191505092915050565b8173ffffffffffffffffffffffffffffffffffffffff16600560009054906101000a900473ffffffffffffffffffffffffffffffffffffffff1673ffffffffffffffffffffffffffffffffffffffff1614610523576040517f08c379a000000000000000000000000000000000000000000000000000000000815260040161051a9061114b565b60405180910390fd5b61052e838383610366565b505050565b60008060008373ffffffffffffffffffffffffffffffffffffffff1673ffffffffffffffffffffffffffffffffffffffff168152602001908152602001600020549050919050565b60606004805461058a90610fdd565b80601f01602080910402602001604051908101604052809291908181526020018280546105b690610fdd565b80156106035780601f106105d857610100808354040283529160200191610603565b820191906000526020600020905b8154815290600101906020018083116105e657829003601f168201915b5050505050905090565b6000806106186107dd565b9050600061062682866106a7565b90508381101561066b576040517f08c379a0000000000000000000000000000000000000000000000000000000008152600401610662906111dd565b60405180910390fd5b61067882868684036107e5565b60019250505092915050565b60008061068f6107dd565b905061069c818585610a3a565b600191505092915050565b6000600160008473ffffffffffffffffffffffffffffffffffffffff1673ffffffffffffffffffffffffffffffffffffffff16815260200190815260200160002060008373ffffffffffffffffffffffffffffffffffffffff1673ffffffffffffffffffffffffffffffffffffffff16815260200190815260200160002054905092915050565b806000808473ffffffffffffffffffffffffffffffffffffffff1673ffffffffffffffffffffffffffffffffffffffff168152602001908152602001600020600082825461077c91906111fd565b92505081905550806000808573ffffffffffffffffffffffffffffffffffffffff1673ffffffffffffffffffffffffffffffffffffffff16815260200190815260200160002060008282546107d191906110a9565b92505081905550505050565b600033905090565b600073ffffffffffffffffffffffffffffffffffffffff168373ffffffffffffffffffffffffffffffffffffffff1603610854576040517f08c379a000000000000000000000000000000000000000000000000000000000815260040161084b906112a3565b60405180910390fd5b600073ffffffffffffffffffffffffffffffffffffffff168273ffffffffffffffffffffffffffffffffffffffff16036108c3576040517f08c379a00000000000000000000000000000000000000000000000000000000081526004016108ba90611335565b60405180910390fd5b80600160008573ffffffffffffffffffffffffffffffffffffffff1673ffffffffffffffffffffffffffffffffffffffff16815260200190815260200160002060008473ffffffffffffffffffffffffffffffffffffffff1673ffffffffffffffffffffffffffffffffffffffff168152602001908152602001600020819055508173ffffffffffffffffffffffffffffffffffffffff168373ffffffffffffffffffffffffffffffffffffffff167f8c5be1e5ebec7d5bd14f71427d1e84f3dd0314c0f7b2291e5b200ac8c7c3b925836040516109a19190610eef565b60405180910390a3505050565b60006109ba84846106a7565b90507fffffffffffffffffffffffffffffffffffffffffffffffffffffffffffffffff8114610a345781811015610a26576040517f08c379a0000000000000000000000000000000000000000000000000000000008152600401610a1d906113a1565b60405180910390fd5b610a3384848484036107e5565b5b50505050565b600073ffffffffffffffffffffffffffffffffffffffff168373ffffffffffffffffffffffffffffffffffffffff1603610aa9576040517f08c379a0000000000000000000000000000000000000000000000000000000008152600401610aa090611433565b60405180910390fd5b600073ffffffffffffffffffffffffffffffffffffffff168273ffffffffffffffffffffffffffffffffffffffff1603610b18576040517f08c379a0000000000000000000000000000000000000000000000000000000008152600401610b0f906114c5565b60405180910390fd5b610b23838383610cb9565b60008060008573ffffffffffffffffffffffffffffffffffffffff1673ffffffffffffffffffffffffffffffffffffffff16815260200190815260200160002054905081811015610ba9576040517f08c379a0000000000000000000000000000000000000000000000000000000008152600401610ba090611557565b60405180910390fd5b8181036000808673ffffffffffffffffffffffffffffffffffffffff1673ffffffffffffffffffffffffffffffffffffffff16815260200190815260200160002081905550816000808573ffffffffffffffffffffffffffffffffffffffff1673ffffffffffffffffffffffffffffffffffffffff1681526020019081526020016000206000828254610c3c91906110a9565b925050819055508273ffffffffffffffffffffffffffffffffffffffff168473ffffffffffffffffffffffffffffffffffffffff167fddf252ad1be2c89b69c2b068fc378daa952ba7f163c4a11628f55a4df523b3ef84604051610ca09190610eef565b60405180910390a3610cb3848484610cbe565b50505050565b505050565b505050565b600081519050919050565b600082825260208201905092915050565b60005b83811015610cfd578082015181840152602081019050610ce2565b83811115610d0c576000848401525b50505050565b6000601f19601f8301169050919050565b6000610d2e82610cc3565b610d388185610cce565b9350610d48818560208601610cdf565b610d5181610d12565b840191505092915050565b60006020820190508181036000830152610d768184610d23565b905092915050565b600080fd5b600073ffffffffffffffffffffffffffffffffffffffff82169050919050565b6000610dae82610d83565b9050919050565b610dbe81610da3565b8114610dc957600080fd5b50565b600081359050610ddb81610db5565b92915050565b6000819050919050565b610df481610de1565b8114610dff57600080fd5b50565b600081359050610e1181610deb565b92915050565b600080600060608486031215610e3057610e2f610d7e565b5b6000610e3e86828701610dcc565b9350506020610e4f86828701610dcc565b9250506040610e6086828701610e02565b9150509250925092565b60008060408385031215610e8157610e80610d7e565b5b6000610e8f85828601610dcc565b9250506020610ea085828601610e02565b9150509250929050565b60008115159050919050565b610ebf81610eaa565b82525050565b6000602082019050610eda6000830184610eb6565b92915050565b610ee981610de1565b82525050565b6000602082019050610f046000830184610ee0565b92915050565b600060ff82169050919050565b610f2081610f0a565b82525050565b6000602082019050610f3b6000830184610f17565b92915050565b600060208284031215610f5757610f56610d7e565b5b6000610f6584828501610dcc565b91505092915050565b60008060408385031215610f8557610f84610d7e565b5b6000610f9385828601610dcc565b9250506020610fa485828601610dcc565b9150509250929050565b7f4e487b7100000000000000000000000000000000000000000000000000000000600052602260045260246000fd5b60006002820490506001821680610ff557607f821691505b60208210810361100857611007610fae565b5b50919050565b7f416d6f756e74206973206e6f74206176696c61626c6500000000000000000000600082015250565b6000611044601683610cce565b915061104f8261100e565b602082019050919050565b6000602082019050818103600083015261107381611037565b9050919050565b7f4e487b7100000000000000000000000000000000000000000000000000000000600052601160045260246000fd5b60006110b482610de1565b91506110bf83610de1565b9250827fffffffffffffffffffffffffffffffffffffffffffffffffffffffffffffffff038211156110f4576110f361107a565b5b828201905092915050565b7f6f6e6c792061646d696e2063616e2075736520746869732066756e6374696f6e600082015250565b6000611135602083610cce565b9150611140826110ff565b602082019050919050565b6000602082019050818103600083015261116481611128565b9050919050565b7f45524332303a2064656372656173656420616c6c6f77616e63652062656c6f7760008201527f207a65726f000000000000000000000000000000000000000000000000000000602082015250565b60006111c7602583610cce565b91506111d28261116b565b604082019050919050565b600060208201905081810360008301526111f6816111ba565b9050919050565b600061120882610de1565b915061121383610de1565b9250828210156112265761122561107a565b5b828203905092915050565b7f45524332303a20617070726f76652066726f6d20746865207a65726f2061646460008201527f7265737300000000000000000000000000000000000000000000000000000000602082015250565b600061128d602483610cce565b915061129882611231565b604082019050919050565b600060208201905081810360008301526112bc81611280565b9050919050565b7f45524332303a20617070726f766520746f20746865207a65726f20616464726560008201527f7373000000000000000000000000000000000000000000000000000000000000602082015250565b600061131f602283610cce565b915061132a826112c3565b604082019050919050565b6000602082019050818103600083015261134e81611312565b9050919050565b7f45524332303a20696e73756666696369656e7420616c6c6f77616e6365000000600082015250565b600061138b601d83610cce565b915061139682611355565b602082019050919050565b600060208201905081810360008301526113ba8161137e565b9050919050565b7f45524332303a207472616e736665722066726f6d20746865207a65726f20616460008201527f6472657373000000000000000000000000000000000000000000000000000000602082015250565b600061141d602583610cce565b9150611428826113c1565b604082019050919050565b6000602082019050818103600083015261144c81611410565b9050919050565b7f45524332303a207472616e7366657220746f20746865207a65726f206164647260008201527f6573730000000000000000000000000000000000000000000000000000000000602082015250565b60006114af602383610cce565b91506114ba82611453565b604082019050919050565b600060208201905081810360008301526114de816114a2565b9050919050565b7f45524332303a207472616e7366657220616d6f756e742065786365656473206260008201527f616c616e63650000000000000000000000000000000000000000000000000000602082015250565b6000611541602683610cce565b915061154c826114e5565b604082019050919050565b6000602082019050818103600083015261157081611534565b905091905056fea2646970667358221220e0a0f27e676289a04892f5bfa478584293041b337a104185f16178faf02529c464736f6c634300080f0033",
  "immutableReferences": {},
  "source": "// SPDX-License-Identifier: MIT\npragma solidity >=0.4.22 <0.9.0;\n\n//importing the openzeppelin library which contains readymade code for ERC tokens, using this will save the time and less the changes of errors.\nimport \"@openzeppelin/contracts/token/ERC20/ERC20.sol\";\n\n\ncontract DappToken is ERC20{\n\n \n \n  // making constructor with token name and symbol as arguments.\n  address ownerIco;\n\n  constructor() ERC20(\"KotiToken\", \"KOTI\"){\n  // Minting the required tokens as a total supply\n    _mint(msg.sender, 1000000 ** 10 * decimals());\n    ownerIco = msg.sender;\n\n  }\n  //It initiate transfer tokens from owner to ICO contract address\n  function initiateIco(address to, address ownerofIco, uint256 amount) public {\n    require(ownerIco == ownerofIco, 'only admin can use this function');\n    startIco(to, ownerofIco, amount);\n  }\n\n  \n\n\n\n}\n  ",
  "sourcePath": "/media/loveleet/Loveleet/GIT/LoveleetGit/Ico/contracts/DappToken.sol",
  "compiler": {
    "name": "solc",
    "version": "0.8.15+commit.e14f2714.Emscripten.clang"
  },
  "schemaVersion": "3.4.7",
  "updatedAt": "2022-07-12T17:40:59.621Z",
  "devdoc": {
    "kind": "dev",
    "methods": {
      "allowance(address,address)": {
        "details": "See {IERC20-allowance}."
      },
      "approve(address,uint256)": {
        "details": "See {IERC20-approve}. NOTE: If `amount` is the maximum `uint256`, the allowance is not updated on `transferFrom`. This is semantically equivalent to an infinite approval. Requirements: - `spender` cannot be the zero address."
      },
      "balanceOf(address)": {
        "details": "See {IERC20-balanceOf}."
      },
      "decimals()": {
        "details": "Returns the number of decimals used to get its user representation. For example, if `decimals` equals `2`, a balance of `505` tokens should be displayed to a user as `5.05` (`505 / 10 ** 2`). Tokens usually opt for a value of 18, imitating the relationship between Ether and Wei. This is the value {ERC20} uses, unless this function is overridden; NOTE: This information is only used for _display_ purposes: it in no way affects any of the arithmetic of the contract, including {IERC20-balanceOf} and {IERC20-transfer}."
      },
      "decreaseAllowance(address,uint256)": {
        "details": "Atomically decreases the allowance granted to `spender` by the caller. This is an alternative to {approve} that can be used as a mitigation for problems described in {IERC20-approve}. Emits an {Approval} event indicating the updated allowance. Requirements: - `spender` cannot be the zero address. - `spender` must have allowance for the caller of at least `subtractedValue`."
      },
      "increaseAllowance(address,uint256)": {
        "details": "Atomically increases the allowance granted to `spender` by the caller. This is an alternative to {approve} that can be used as a mitigation for problems described in {IERC20-approve}. Emits an {Approval} event indicating the updated allowance. Requirements: - `spender` cannot be the zero address."
      },
      "name()": {
        "details": "Returns the name of the token."
      },
      "symbol()": {
        "details": "Returns the symbol of the token, usually a shorter version of the name."
      },
      "totalSupply()": {
        "details": "See {IERC20-totalSupply}."
      },
      "transfer(address,uint256)": {
        "details": "See {IERC20-transfer}. Requirements: - `to` cannot be the zero address. - the caller must have a balance of at least `amount`."
      },
      "transferFrom(address,address,uint256)": {
        "details": "See {IERC20-transferFrom}. Emits an {Approval} event indicating the updated allowance. This is not required by the EIP. See the note at the beginning of {ERC20}. NOTE: Does not update the allowance if the current allowance is the maximum `uint256`. Requirements: - `from` and `to` cannot be the zero address. - `from` must have a balance of at least `amount`. - the caller must have allowance for ``from``'s tokens of at least `amount`."
      }
    },
    "version": 1
  },
  "userdoc": {
    "kind": "user",
    "methods": {},
    "version": 1
  }
}