{
  "contractName": "DappTokenSale",
  "abi": [
    {
      "inputs": [
        {
          "internalType": "contract DappToken",
          "name": "_tokenContract",
          "type": "address"
        },
        {
          "internalType": "uint256",
          "name": "_tokenPrice",
          "type": "uint256"
        }
      ],
      "stateMutability": "nonpayable",
      "type": "constructor"
    },
    {
      "anonymous": false,
      "inputs": [
        {
          "indexed": true,
          "internalType": "address",
          "name": "To",
          "type": "address"
        },
        {
          "indexed": false,
          "internalType": "uint256",
          "name": "Amount_of_tokens",
          "type": "uint256"
        }
      ],
      "name": "tokenspurchased",
      "type": "event"
    },
    {
      "inputs": [],
      "name": "tokenContract",
      "outputs": [
        {
          "internalType": "contract DappToken",
          "name": "",
          "type": "address"
        }
      ],
      "stateMutability": "view",
      "type": "function"
    },
    {
      "inputs": [],
      "name": "tokenPrice",
      "outputs": [
        {
          "internalType": "uint256",
          "name": "",
          "type": "uint256"
        }
      ],
      "stateMutability": "view",
      "type": "function"
    },
    {
      "inputs": [],
      "name": "tokensSold",
      "outputs": [
        {
          "internalType": "uint256",
          "name": "",
          "type": "uint256"
        }
      ],
      "stateMutability": "view",
      "type": "function"
    },
    {
      "inputs": [
        {
          "internalType": "uint256",
          "name": "amount",
          "type": "uint256"
        }
      ],
      "name": "initialIcoForSale",
      "outputs": [
        {
          "internalType": "bool",
          "name": "",
          "type": "bool"
        }
      ],
      "stateMutability": "nonpayable",
      "type": "function"
    },
    {
      "inputs": [
        {
          "internalType": "uint256",
          "name": "_tokensQuantity",
          "type": "uint256"
        }
      ],
      "name": "buyTokens",
      "outputs": [],
      "stateMutability": "payable",
      "type": "function"
    },
    {
      "inputs": [],
      "name": "endSale",
      "outputs": [],
      "stateMutability": "nonpayable",
      "type": "function"
    }
  ],
  "bytecode": "0x60806040523480156200001157600080fd5b5060405162000ef738038062000ef7833981810160405281019062000037919062000180565b336000806101000a81548173ffffffffffffffffffffffffffffffffffffffff021916908373ffffffffffffffffffffffffffffffffffffffff16021790555081600160006101000a81548173ffffffffffffffffffffffffffffffffffffffff021916908373ffffffffffffffffffffffffffffffffffffffff160217905550806002819055505050620001c7565b600080fd5b600073ffffffffffffffffffffffffffffffffffffffff82169050919050565b6000620000f982620000cc565b9050919050565b60006200010d82620000ec565b9050919050565b6200011f8162000100565b81146200012b57600080fd5b50565b6000815190506200013f8162000114565b92915050565b6000819050919050565b6200015a8162000145565b81146200016657600080fd5b50565b6000815190506200017a816200014f565b92915050565b600080604083850312156200019a5762000199620000c7565b5b6000620001aa858286016200012e565b9250506020620001bd8582860162000169565b9150509250929050565b610d2080620001d76000396000f3fe6080604052600436106100555760003560e01c80633610724e1461005a578063380d831b14610076578063518ab2a81461008d57806355a373d6146100b85780637ff9b596146100e3578063f4c12e921461010e575b600080fd5b610074600480360381019061006f919061072a565b61014b565b005b34801561008257600080fd5b5061008b6103a9565b005b34801561009957600080fd5b506100a26105b4565b6040516100af9190610766565b60405180910390f35b3480156100c457600080fd5b506100cd6105ba565b6040516100da9190610800565b60405180910390f35b3480156100ef57600080fd5b506100f86105e0565b6040516101059190610766565b60405180910390f35b34801561011a57600080fd5b506101356004803603810190610130919061072a565b6105e6565b6040516101429190610836565b60405180910390f35b61015781600254610682565b3414610198576040517f08c379a000000000000000000000000000000000000000000000000000000000815260040161018f906108ae565b60405180910390fd5b80600160009054906101000a900473ffffffffffffffffffffffffffffffffffffffff1673ffffffffffffffffffffffffffffffffffffffff166370a0823160008054906101000a900473ffffffffffffffffffffffffffffffffffffffff166040518263ffffffff1660e01b815260040161021491906108ef565b602060405180830381865afa158015610231573d6000803e3d6000fd5b505050506040513d601f19601f82011682018060405250810190610255919061091f565b1015610296576040517f08c379a000000000000000000000000000000000000000000000000000000000815260040161028d90610998565b60405180910390fd5b600160009054906101000a900473ffffffffffffffffffffffffffffffffffffffff1673ffffffffffffffffffffffffffffffffffffffff1663a9059cbb33836040518363ffffffff1660e01b81526004016102f39291906109d9565b6020604051808303816000875af1158015610312573d6000803e3d6000fd5b505050506040513d601f19601f820116820180604052508101906103369190610a2e565b61033f57600080fd5b80600360008282546103519190610a8a565b925050819055503373ffffffffffffffffffffffffffffffffffffffff167f2261c7f37233f2656027eb0219bc0003e16f42bff9d74daee36576092dc375888260405161039e9190610766565b60405180910390a250565b3373ffffffffffffffffffffffffffffffffffffffff1660008054906101000a900473ffffffffffffffffffffffffffffffffffffffff1673ffffffffffffffffffffffffffffffffffffffff1614610437576040517f08c379a000000000000000000000000000000000000000000000000000000000815260040161042e90610b52565b60405180910390fd5b600160009054906101000a900473ffffffffffffffffffffffffffffffffffffffff1673ffffffffffffffffffffffffffffffffffffffff1663a9059cbb33600160009054906101000a900473ffffffffffffffffffffffffffffffffffffffff1673ffffffffffffffffffffffffffffffffffffffff166370a08231306040518263ffffffff1660e01b81526004016104d19190610b72565b602060405180830381865afa1580156104ee573d6000803e3d6000fd5b505050506040513d601f19601f82011682018060405250810190610512919061091f565b6040518363ffffffff1660e01b815260040161052f9291906109d9565b6020604051808303816000875af115801561054e573d6000803e3d6000fd5b505050506040513d601f19601f820116820180604052508101906105729190610a2e565b61057b57600080fd5b60008054906101000a900473ffffffffffffffffffffffffffffffffffffffff1673ffffffffffffffffffffffffffffffffffffffff16ff5b60035481565b600160009054906101000a900473ffffffffffffffffffffffffffffffffffffffff1681565b60025481565b6000600160009054906101000a900473ffffffffffffffffffffffffffffffffffffffff1673ffffffffffffffffffffffffffffffffffffffff166364584c0d3033856040518463ffffffff1660e01b815260040161064793929190610b8d565b600060405180830381600087803b15801561066157600080fd5b505af1158015610675573d6000803e3d6000fd5b5050505060019050919050565b6000808214806106aa57508282838561069b9190610bc4565b9250826106a89190610c4d565b145b6106e9576040517f08c379a00000000000000000000000000000000000000000000000000000000081526004016106e090610cca565b60405180910390fd5b92915050565b600080fd5b6000819050919050565b610707816106f4565b811461071257600080fd5b50565b600081359050610724816106fe565b92915050565b6000602082840312156107405761073f6106ef565b5b600061074e84828501610715565b91505092915050565b610760816106f4565b82525050565b600060208201905061077b6000830184610757565b92915050565b600073ffffffffffffffffffffffffffffffffffffffff82169050919050565b6000819050919050565b60006107c66107c16107bc84610781565b6107a1565b610781565b9050919050565b60006107d8826107ab565b9050919050565b60006107ea826107cd565b9050919050565b6107fa816107df565b82525050565b600060208201905061081560008301846107f1565b92915050565b60008115159050919050565b6108308161081b565b82525050565b600060208201905061084b6000830184610827565b92915050565b600082825260208201905092915050565b7f54686520616d6f756e7420697320696e636f7272656374000000000000000000600082015250565b6000610898601783610851565b91506108a382610862565b602082019050919050565b600060208201905081810360008301526108c78161088b565b9050919050565b60006108d9826107cd565b9050919050565b6108e9816108ce565b82525050565b600060208201905061090460008301846108e0565b92915050565b600081519050610919816106fe565b92915050565b600060208284031215610935576109346106ef565b5b60006109438482850161090a565b91505092915050565b7f546f6b656e7320617265206e6f7420617661696c61626c650000000000000000600082015250565b6000610982601883610851565b915061098d8261094c565b602082019050919050565b600060208201905081810360008301526109b181610975565b9050919050565b60006109c382610781565b9050919050565b6109d3816109b8565b82525050565b60006040820190506109ee60008301856109ca565b6109fb6020830184610757565b9392505050565b610a0b8161081b565b8114610a1657600080fd5b50565b600081519050610a2881610a02565b92915050565b600060208284031215610a4457610a436106ef565b5b6000610a5284828501610a19565b91505092915050565b7f4e487b7100000000000000000000000000000000000000000000000000000000600052601160045260246000fd5b6000610a95826106f4565b9150610aa0836106f4565b9250827fffffffffffffffffffffffffffffffffffffffffffffffffffffffffffffffff03821115610ad557610ad4610a5b565b5b828201905092915050565b7f4163636f756e74206973206e6f742061646d696e20746f20706572666f726d2060008201527f746869732066756e6374696f6e00000000000000000000000000000000000000602082015250565b6000610b3c602d83610851565b9150610b4782610ae0565b604082019050919050565b60006020820190508181036000830152610b6b81610b2f565b9050919050565b6000602082019050610b8760008301846109ca565b92915050565b6000606082019050610ba260008301866109ca565b610baf60208301856109ca565b610bbc6040830184610757565b949350505050565b6000610bcf826106f4565b9150610bda836106f4565b9250817fffffffffffffffffffffffffffffffffffffffffffffffffffffffffffffffff0483118215151615610c1357610c12610a5b565b5b828202905092915050565b7f4e487b7100000000000000000000000000000000000000000000000000000000600052601260045260246000fd5b6000610c58826106f4565b9150610c63836106f4565b925082610c7357610c72610c1e565b5b828204905092915050565b7f64732d6d6174682d6d756c2d6f766572666c6f77000000000000000000000000600082015250565b6000610cb4601483610851565b9150610cbf82610c7e565b602082019050919050565b60006020820190508181036000830152610ce381610ca7565b905091905056fea2646970667358221220cf271712b2e53384bc81ae258045f4d5835ad712445e582c6e39e5c0e21fbb5264736f6c634300080f0033",
  "immutableReferences": {},
  "source": "// SPDX-License-Identifier: MIT\npragma solidity >=0.4.22 <0.9.0;\n\n\nimport './DappToken.sol';   //Importing the DappToken.sol to use transfer funciton in contract.\nimport  '../ds-math/src/math.sol'; //imported the ds-math library for using calculations funcitons\n\n//Inherting the DSMath to use its funcitons\ncontract DappTokenSale is DSMath {\n\n        \n        address  payable  private admin; // Admin to specify the owner of the ICO to transfer and kill the contract in the end.\n        DappToken public tokenContract; //Making variable vof DappToken Contract.\n        uint256 public tokenPrice;  //Set the price of token.\n        uint256 public tokensSold ;\n        event tokenspurchased( address indexed To, uint256 Amount_of_tokens);\n\n\n      \n\n        //constructor is getting the DappToken.sol address as an argument with token price.\n        constructor (DappToken _tokenContract, uint256  _tokenPrice) {\n         \n         admin = payable(msg.sender); //The admin will be the one who execute the contract.\n         tokenContract = _tokenContract; \n         tokenPrice = _tokenPrice;\n\n        //  tokenContract.transfer(address(this), tokenContract.balanceOf(msg.sender));\n\n        \n\n\n        }\n         //This is to initializing the ICO to start token sale\n        function initialIcoForSale(uint256 amount) public returns(bool){\n                tokenContract.initiateIco(address(this), msg.sender, amount);\n                return true;\n        }\n\n        //Creating the function to buy tokens.\n        function buyTokens(uint256 _tokensQuantity) public payable {\n                \n                //Checking the amount sent is correct as per the _tokensQuantity.\n                require(msg.value == mul(_tokensQuantity, tokenPrice),\"The amount is incorrect\");\n                //Checking the tokens are in balance\n                require(tokenContract.balanceOf(admin) >= _tokensQuantity, \"Tokens are not available\");\n                require(tokenContract.transfer(msg.sender, _tokensQuantity));\n\n                //Increase the quantity of token sold.\n                tokensSold += _tokensQuantity;\n                emit tokenspurchased(msg.sender, _tokensQuantity);\n\n        }\n        // It eleminate the bytecode of the contract after sending all tokens and amount to admin. \n        function endSale()public{\n                require(admin == msg.sender, \"Account is not admin to perform this function\");\n                require(tokenContract.transfer(msg.sender, tokenContract.balanceOf(address(this))));\n                selfdestruct(admin);\n        }\n        \n\n\n}\n",
  "sourcePath": "/media/loveleet/Loveleet/GIT/LoveleetGit/Ico/contracts/DappTokenSale.sol",
  "compiler": {
    "name": "solc",
    "version": "0.8.15+commit.e14f2714.Emscripten.clang"
  },
  "schemaVersion": "3.4.7",
  "updatedAt": "2022-07-12T17:40:59.708Z",
  "devdoc": {
    "kind": "dev",
    "methods": {},
    "version": 1
  },
  "userdoc": {
    "kind": "user",
    "methods": {},
    "version": 1
  }
}